{
    "_format": "hh-sol-artifact-1",
    "contractName": "DCAStrategy",
    "sourceName": "contracts/DCAStrategy.sol",
    "abi": [
        {
            "inputs": [
                {
                    "internalType": "address",
                    "name": "_router",
                    "type": "address"
                }
            ],
            "stateMutability": "nonpayable",
            "type": "constructor"
        },
        {
            "inputs": [
                {
                    "internalType": "address",
                    "name": "owner",
                    "type": "address"
                }
            ],
            "name": "OwnableInvalidOwner",
            "type": "error"
        },
        {
            "inputs": [
                {
                    "internalType": "address",
                    "name": "account",
                    "type": "address"
                }
            ],
            "name": "OwnableUnauthorizedAccount",
            "type": "error"
        },
        {
            "inputs": [],
            "name": "ReentrancyGuardReentrantCall",
            "type": "error"
        },
        {
            "inputs": [
                {
                    "internalType": "address",
                    "name": "token",
                    "type": "address"
                }
            ],
            "name": "SafeERC20FailedOperation",
            "type": "error"
        },
        {
            "anonymous": false,
            "inputs": [
                {
                    "indexed": true,
                    "internalType": "address",
                    "name": "previousOwner",
                    "type": "address"
                },
                {
                    "indexed": true,
                    "internalType": "address",
                    "name": "newOwner",
                    "type": "address"
                }
            ],
            "name": "OwnershipTransferred",
            "type": "event"
        },
        {
            "anonymous": false,
            "inputs": [
                {
                    "indexed": true,
                    "internalType": "address",
                    "name": "user",
                    "type": "address"
                },
                {
                    "indexed": true,
                    "internalType": "uint256",
                    "name": "strategyId",
                    "type": "uint256"
                },
                {
                    "indexed": true,
                    "internalType": "address",
                    "name": "tokenIn",
                    "type": "address"
                },
                {
                    "indexed": false,
                    "internalType": "uint256",
                    "name": "amount",
                    "type": "uint256"
                }
            ],
            "name": "StrategyCancelled",
            "type": "event"
        },
        {
            "anonymous": false,
            "inputs": [
                {
                    "indexed": true,
                    "internalType": "address",
                    "name": "user",
                    "type": "address"
                },
                {
                    "indexed": true,
                    "internalType": "uint256",
                    "name": "strategyId",
                    "type": "uint256"
                },
                {
                    "indexed": true,
                    "internalType": "address",
                    "name": "tokenIn",
                    "type": "address"
                },
                {
                    "indexed": false,
                    "internalType": "address",
                    "name": "tokenOut",
                    "type": "address"
                },
                {
                    "indexed": false,
                    "internalType": "uint256",
                    "name": "amountPerSwap",
                    "type": "uint256"
                },
                {
                    "indexed": false,
                    "internalType": "uint256",
                    "name": "intervalSeconds",
                    "type": "uint256"
                },
                {
                    "indexed": false,
                    "internalType": "uint256",
                    "name": "ordersAmount",
                    "type": "uint256"
                }
            ],
            "name": "StrategyCreated",
            "type": "event"
        },
        {
            "anonymous": false,
            "inputs": [
                {
                    "indexed": true,
                    "internalType": "address",
                    "name": "user",
                    "type": "address"
                },
                {
                    "indexed": true,
                    "internalType": "uint256",
                    "name": "strategyId",
                    "type": "uint256"
                },
                {
                    "indexed": false,
                    "internalType": "uint256",
                    "name": "outputAmount",
                    "type": "uint256"
                }
            ],
            "name": "SwapExecuted",
            "type": "event"
        },
        {
            "anonymous": false,
            "inputs": [
                {
                    "indexed": true,
                    "internalType": "address",
                    "name": "user",
                    "type": "address"
                },
                {
                    "indexed": true,
                    "internalType": "address",
                    "name": "token",
                    "type": "address"
                },
                {
                    "indexed": false,
                    "internalType": "uint256",
                    "name": "amount",
                    "type": "uint256"
                }
            ],
            "name": "TokensDeposited",
            "type": "event"
        },
        {
            "anonymous": false,
            "inputs": [
                {
                    "indexed": true,
                    "internalType": "address",
                    "name": "user",
                    "type": "address"
                },
                {
                    "indexed": true,
                    "internalType": "address",
                    "name": "token",
                    "type": "address"
                },
                {
                    "indexed": false,
                    "internalType": "uint256",
                    "name": "amount",
                    "type": "uint256"
                }
            ],
            "name": "TokensWithdrawn",
            "type": "event"
        },
        {
            "inputs": [
                {
                    "internalType": "uint256",
                    "name": "strategyId",
                    "type": "uint256"
                }
            ],
            "name": "cancelMyStrategy",
            "outputs": [],
            "stateMutability": "nonpayable",
            "type": "function"
        },
        {
            "inputs": [
                {
                    "internalType": "address",
                    "name": "user",
                    "type": "address"
                },
                {
                    "internalType": "uint256",
                    "name": "strategyId",
                    "type": "uint256"
                }
            ],
            "name": "cancelStrategy",
            "outputs": [],
            "stateMutability": "nonpayable",
            "type": "function"
        },
        {
            "inputs": [
                {
                    "internalType": "address",
                    "name": "user",
                    "type": "address"
                },
                {
                    "internalType": "address",
                    "name": "tokenIn",
                    "type": "address"
                },
                {
                    "internalType": "address",
                    "name": "tokenOut",
                    "type": "address"
                },
                {
                    "internalType": "uint256",
                    "name": "amountPerSwap",
                    "type": "uint256"
                },
                {
                    "internalType": "uint256",
                    "name": "intervalSeconds",
                    "type": "uint256"
                },
                {
                    "internalType": "uint256",
                    "name": "ordersAmount",
                    "type": "uint256"
                }
            ],
            "name": "createStrategy",
            "outputs": [],
            "stateMutability": "nonpayable",
            "type": "function"
        },
        {
            "inputs": [
                {
                    "internalType": "address",
                    "name": "token",
                    "type": "address"
                },
                {
                    "internalType": "uint256",
                    "name": "amount",
                    "type": "uint256"
                }
            ],
            "name": "depositTokens",
            "outputs": [],
            "stateMutability": "nonpayable",
            "type": "function"
        },
        {
            "inputs": [
                {
                    "internalType": "address",
                    "name": "user",
                    "type": "address"
                },
                {
                    "internalType": "uint256",
                    "name": "strategyId",
                    "type": "uint256"
                },
                {
                    "internalType": "bytes",
                    "name": "pathDefinition",
                    "type": "bytes"
                },
                {
                    "internalType": "uint256",
                    "name": "outputQuote",
                    "type": "uint256"
                },
                {
                    "internalType": "uint256",
                    "name": "outputMin",
                    "type": "uint256"
                },
                {
                    "internalType": "uint32",
                    "name": "referralCode",
                    "type": "uint32"
                }
            ],
            "name": "executeSwap",
            "outputs": [],
            "stateMutability": "nonpayable",
            "type": "function"
        },
        {
            "inputs": [
                {
                    "internalType": "address",
                    "name": "user",
                    "type": "address"
                }
            ],
            "name": "getStrategiesCount",
            "outputs": [
                {
                    "internalType": "uint256",
                    "name": "",
                    "type": "uint256"
                }
            ],
            "stateMutability": "view",
            "type": "function"
        },
        {
            "inputs": [
                {
                    "internalType": "address",
                    "name": "user",
                    "type": "address"
                },
                {
                    "internalType": "uint256",
                    "name": "strategyId",
                    "type": "uint256"
                }
            ],
            "name": "getStrategy",
            "outputs": [
                {
                    "components": [
                        {
                            "internalType": "address",
                            "name": "tokenIn",
                            "type": "address"
                        },
                        {
                            "internalType": "address",
                            "name": "tokenOut",
                            "type": "address"
                        },
                        {
                            "internalType": "uint256",
                            "name": "amountPerSwap",
                            "type": "uint256"
                        },
                        {
                            "internalType": "uint256",
                            "name": "nextSwapTime",
                            "type": "uint256"
                        },
                        {
                            "internalType": "uint256",
                            "name": "intervalSeconds",
                            "type": "uint256"
                        },
                        {
                            "internalType": "uint256",
                            "name": "ordersAmount",
                            "type": "uint256"
                        },
                        {
                            "internalType": "enum DCAStrategy.StrategyStatus",
                            "name": "status",
                            "type": "uint8"
                        }
                    ],
                    "internalType": "struct DCAStrategy.Strategy",
                    "name": "",
                    "type": "tuple"
                }
            ],
            "stateMutability": "view",
            "type": "function"
        },
        {
            "inputs": [],
            "name": "owner",
            "outputs": [
                {
                    "internalType": "address",
                    "name": "",
                    "type": "address"
                }
            ],
            "stateMutability": "view",
            "type": "function"
        },
        {
            "inputs": [],
            "name": "renounceOwnership",
            "outputs": [],
            "stateMutability": "nonpayable",
            "type": "function"
        },
        {
            "inputs": [],
            "name": "router",
            "outputs": [
                {
                    "internalType": "contract IOBRouter",
                    "name": "",
                    "type": "address"
                }
            ],
            "stateMutability": "view",
            "type": "function"
        },
        {
            "inputs": [
                {
                    "internalType": "address",
                    "name": "",
                    "type": "address"
                },
                {
                    "internalType": "uint256",
                    "name": "",
                    "type": "uint256"
                }
            ],
            "name": "strategies",
            "outputs": [
                {
                    "internalType": "address",
                    "name": "tokenIn",
                    "type": "address"
                },
                {
                    "internalType": "address",
                    "name": "tokenOut",
                    "type": "address"
                },
                {
                    "internalType": "uint256",
                    "name": "amountPerSwap",
                    "type": "uint256"
                },
                {
                    "internalType": "uint256",
                    "name": "nextSwapTime",
                    "type": "uint256"
                },
                {
                    "internalType": "uint256",
                    "name": "intervalSeconds",
                    "type": "uint256"
                },
                {
                    "internalType": "uint256",
                    "name": "ordersAmount",
                    "type": "uint256"
                },
                {
                    "internalType": "enum DCAStrategy.StrategyStatus",
                    "name": "status",
                    "type": "uint8"
                }
            ],
            "stateMutability": "view",
            "type": "function"
        },
        {
            "inputs": [
                {
                    "internalType": "address",
                    "name": "newOwner",
                    "type": "address"
                }
            ],
            "name": "transferOwnership",
            "outputs": [],
            "stateMutability": "nonpayable",
            "type": "function"
        },
        {
            "inputs": [
                {
                    "internalType": "address",
                    "name": "",
                    "type": "address"
                },
                {
                    "internalType": "address",
                    "name": "",
                    "type": "address"
                }
            ],
            "name": "userBalances",
            "outputs": [
                {
                    "internalType": "uint256",
                    "name": "",
                    "type": "uint256"
                }
            ],
            "stateMutability": "view",
            "type": "function"
        },
        {
            "inputs": [
                {
                    "internalType": "address",
                    "name": "token",
                    "type": "address"
                },
                {
                    "internalType": "uint256",
                    "name": "amount",
                    "type": "uint256"
                }
            ],
            "name": "withdraw",
            "outputs": [],
            "stateMutability": "nonpayable",
            "type": "function"
        }
    ],
    "bytecode": "0x608060405234801561001057600080fd5b50604051612f63380380612f638339818101604052810190610032919061022a565b33600073ffffffffffffffffffffffffffffffffffffffff168173ffffffffffffffffffffffffffffffffffffffff16036100a55760006040517f1e4fbdf700000000000000000000000000000000000000000000000000000000815260040161009c9190610266565b60405180910390fd5b6100b48161010360201b60201c565b506001808190555080600260006101000a81548173ffffffffffffffffffffffffffffffffffffffff021916908373ffffffffffffffffffffffffffffffffffffffff16021790555050610281565b60008060009054906101000a900473ffffffffffffffffffffffffffffffffffffffff169050816000806101000a81548173ffffffffffffffffffffffffffffffffffffffff021916908373ffffffffffffffffffffffffffffffffffffffff1602179055508173ffffffffffffffffffffffffffffffffffffffff168173ffffffffffffffffffffffffffffffffffffffff167f8be0079c531659141344cd1fd0a4f28419497f9722a3daafe3b4186f6b6457e060405160405180910390a35050565b600080fd5b600073ffffffffffffffffffffffffffffffffffffffff82169050919050565b60006101f7826101cc565b9050919050565b610207816101ec565b811461021257600080fd5b50565b600081519050610224816101fe565b92915050565b6000602082840312156102405761023f6101c7565b5b600061024e84828501610215565b91505092915050565b610260816101ec565b82525050565b600060208201905061027b6000830184610257565b92915050565b612cd3806102906000396000f3fe608060405234801561001057600080fd5b50600436106100ea5760003560e01c80639f8f32441161008c578063f2fde38b11610066578063f2fde38b1461024d578063f3fef3a314610269578063f887ea4014610285578063fe7f7334146102a3576100ea565b80639f8f3244146101cb578063adb5198014610201578063ee99657714610231576100ea565b8063715018a6116100c8578063715018a6146101575780638da5cb5b1461016157806397982e311461017f578063985349c3146101af576100ea565b806321d43831146100ef5780634648f9031461010b57806366168bd71461013b575b600080fd5b61010960048036038101906101049190611ec5565b6102bf565b005b61012560048036038101906101209190611f50565b6102dc565b60405161013291906120b3565b60405180910390f35b61015560048036038101906101509190611f50565b6104e9565b005b61015f610655565b005b610169610669565b60405161017691906120dd565b60405180910390f35b610199600480360381019061019491906120f8565b610692565b6040516101a69190612134565b60405180910390f35b6101c960048036038101906101c491906121f0565b6106de565b005b6101e560048036038101906101e09190611f50565b610f6a565b6040516101f897969594939291906122ae565b60405180910390f35b61021b6004803603810190610216919061231d565b611016565b6040516102289190612134565b60405180910390f35b61024b60048036038101906102469190611f50565b61103b565b005b610267600480360381019061026291906120f8565b611061565b005b610283600480360381019061027e9190611f50565b6110e7565b005b61028d611320565b60405161029a91906123bc565b60405180910390f35b6102bd60048036038101906102b891906123d7565b611346565b005b6102c76116a8565b6102d133826116ee565b6102d9611b0b565b50565b6102e4611e0a565b600460008473ffffffffffffffffffffffffffffffffffffffff1673ffffffffffffffffffffffffffffffffffffffff168152602001908152602001600020805490508210610368576040517f08c379a000000000000000000000000000000000000000000000000000000000815260040161035f906124c1565b60405180910390fd5b600460008473ffffffffffffffffffffffffffffffffffffffff1673ffffffffffffffffffffffffffffffffffffffff16815260200190815260200160002082815481106103b9576103b86124e1565b5b90600052602060002090600702016040518060e00160405290816000820160009054906101000a900473ffffffffffffffffffffffffffffffffffffffff1673ffffffffffffffffffffffffffffffffffffffff1673ffffffffffffffffffffffffffffffffffffffff1681526020016001820160009054906101000a900473ffffffffffffffffffffffffffffffffffffffff1673ffffffffffffffffffffffffffffffffffffffff1673ffffffffffffffffffffffffffffffffffffffff168152602001600282015481526020016003820154815260200160048201548152602001600582015481526020016006820160009054906101000a900460ff1660038111156104cb576104ca611fae565b5b60038111156104dd576104dc611fae565b5b81525050905092915050565b6000811161052c576040517f08c379a00000000000000000000000000000000000000000000000000000000081526004016105239061255c565b60405180910390fd5b6105593330838573ffffffffffffffffffffffffffffffffffffffff16611b14909392919063ffffffff16565b80600360003373ffffffffffffffffffffffffffffffffffffffff1673ffffffffffffffffffffffffffffffffffffffff16815260200190815260200160002060008473ffffffffffffffffffffffffffffffffffffffff1673ffffffffffffffffffffffffffffffffffffffff16815260200190815260200160002060008282546105e591906125ab565b925050819055508173ffffffffffffffffffffffffffffffffffffffff163373ffffffffffffffffffffffffffffffffffffffff167fcbc4a4091b012bb1329c38bbbb15455f5cac5aa3673da0a7f38cd61a4f495517836040516106499190612134565b60405180910390a35050565b61065d611b96565b6106676000611c1d565b565b60008060009054906101000a900473ffffffffffffffffffffffffffffffffffffffff16905090565b6000600460008373ffffffffffffffffffffffffffffffffffffffff1673ffffffffffffffffffffffffffffffffffffffff168152602001908152602001600020805490509050919050565b6106e6611b96565b6106ee6116a8565b600460008873ffffffffffffffffffffffffffffffffffffffff1673ffffffffffffffffffffffffffffffffffffffff168152602001908152602001600020805490508610610772576040517f08c379a0000000000000000000000000000000000000000000000000000000008152600401610769906124c1565b60405180910390fd5b6000600460008973ffffffffffffffffffffffffffffffffffffffff1673ffffffffffffffffffffffffffffffffffffffff16815260200190815260200160002087815481106107c5576107c46124e1565b5b90600052602060002090600702019050600160038111156107e9576107e8611fae565b5b8160060160009054906101000a900460ff16600381111561080d5761080c611fae565b5b1461084d576040517f08c379a00000000000000000000000000000000000000000000000000000000081526004016108449061262b565b60405180910390fd5b8060030154421015610894576040517f08c379a000000000000000000000000000000000000000000000000000000000815260040161088b90612697565b60405180910390fd5b8060020154600360008a73ffffffffffffffffffffffffffffffffffffffff1673ffffffffffffffffffffffffffffffffffffffff16815260200190815260200160002060008360000160009054906101000a900473ffffffffffffffffffffffffffffffffffffffff1673ffffffffffffffffffffffffffffffffffffffff1673ffffffffffffffffffffffffffffffffffffffff16815260200190815260200160002054101561097b576040517f08c379a000000000000000000000000000000000000000000000000000000000815260040161097290612703565b60405180910390fd5b8060000160009054906101000a900473ffffffffffffffffffffffffffffffffffffffff1673ffffffffffffffffffffffffffffffffffffffff1663095ea7b3600260009054906101000a900473ffffffffffffffffffffffffffffffffffffffff1660006040518363ffffffff1660e01b81526004016109fd92919061275e565b6020604051808303816000875af1158015610a1c573d6000803e3d6000fd5b505050506040513d601f19601f82011682018060405250810190610a4091906127bf565b610a7f576040517f08c379a0000000000000000000000000000000000000000000000000000000008152600401610a7690612838565b60405180910390fd5b8060000160009054906101000a900473ffffffffffffffffffffffffffffffffffffffff1673ffffffffffffffffffffffffffffffffffffffff1663095ea7b3600260009054906101000a900473ffffffffffffffffffffffffffffffffffffffff1683600201546040518363ffffffff1660e01b8152600401610b04929190612858565b6020604051808303816000875af1158015610b23573d6000803e3d6000fd5b505050506040513d601f19601f82011682018060405250810190610b4791906127bf565b610b86576040517f08c379a0000000000000000000000000000000000000000000000000000000008152600401610b7d906128cd565b60405180910390fd5b8060020154600360008a73ffffffffffffffffffffffffffffffffffffffff1673ffffffffffffffffffffffffffffffffffffffff16815260200190815260200160002060008360000160009054906101000a900473ffffffffffffffffffffffffffffffffffffffff1673ffffffffffffffffffffffffffffffffffffffff1673ffffffffffffffffffffffffffffffffffffffff1681526020019081526020016000206000828254610c3a91906128ed565b9250508190555060006040518060c001604052808360000160009054906101000a900473ffffffffffffffffffffffffffffffffffffffff1673ffffffffffffffffffffffffffffffffffffffff168152602001836002015481526020018360010160009054906101000a900473ffffffffffffffffffffffffffffffffffffffff1673ffffffffffffffffffffffffffffffffffffffff1681526020018681526020018581526020018a73ffffffffffffffffffffffffffffffffffffffff168152509050600260009054906101000a900473ffffffffffffffffffffffffffffffffffffffff1673ffffffffffffffffffffffffffffffffffffffff1663d46cadbc82898930886040518663ffffffff1660e01b8152600401610d63959493929190612a09565b6020604051808303816000875af1925050508015610d9f57506040513d601f19601f82011682018060405250810190610d9c9190612a6e565b60015b610e99578160020154600360008b73ffffffffffffffffffffffffffffffffffffffff1673ffffffffffffffffffffffffffffffffffffffff16815260200190815260200160002060008460000160009054906101000a900473ffffffffffffffffffffffffffffffffffffffff1673ffffffffffffffffffffffffffffffffffffffff1673ffffffffffffffffffffffffffffffffffffffff1681526020019081526020016000206000828254610e5791906125ab565b925050819055506040517f08c379a0000000000000000000000000000000000000000000000000000000008152600401610e9090612ae7565b60405180910390fd5b826004015442610ea991906125ab565b83600301819055506001836005016000828254610ec691906128ed565b92505081905550888a73ffffffffffffffffffffffffffffffffffffffff167f2d043ce009ff53fd444b0f4f5ff4c3f4ee293265203f77f156eeb33b595dfc4f83604051610f149190612134565b60405180910390a36000836005015403610f565760038360060160006101000a81548160ff02191690836003811115610f5057610f4f611fae565b5b02179055505b505050610f61611b0b565b50505050505050565b60046020528160005260406000208181548110610f8657600080fd5b9060005260206000209060070201600091509150508060000160009054906101000a900473ffffffffffffffffffffffffffffffffffffffff16908060010160009054906101000a900473ffffffffffffffffffffffffffffffffffffffff16908060020154908060030154908060040154908060050154908060060160009054906101000a900460ff16905087565b6003602052816000526040600020602052806000526040600020600091509150505481565b611043611b96565b61104b6116a8565b61105582826116ee565b61105d611b0b565b5050565b611069611b96565b600073ffffffffffffffffffffffffffffffffffffffff168173ffffffffffffffffffffffffffffffffffffffff16036110db5760006040517f1e4fbdf70000000000000000000000000000000000000000000000000000000081526004016110d291906120dd565b60405180910390fd5b6110e481611c1d565b50565b6110ef6116a8565b60008111611132576040517f08c379a00000000000000000000000000000000000000000000000000000000081526004016111299061255c565b60405180910390fd5b80600360003373ffffffffffffffffffffffffffffffffffffffff1673ffffffffffffffffffffffffffffffffffffffff16815260200190815260200160002060008473ffffffffffffffffffffffffffffffffffffffff1673ffffffffffffffffffffffffffffffffffffffff1681526020019081526020016000205410156111f1576040517f08c379a00000000000000000000000000000000000000000000000000000000081526004016111e890612b53565b60405180910390fd5b80600360003373ffffffffffffffffffffffffffffffffffffffff1673ffffffffffffffffffffffffffffffffffffffff16815260200190815260200160002060008473ffffffffffffffffffffffffffffffffffffffff1673ffffffffffffffffffffffffffffffffffffffff168152602001908152602001600020600082825461127d91906128ed565b925050819055506112af33828473ffffffffffffffffffffffffffffffffffffffff16611ce19092919063ffffffff16565b8173ffffffffffffffffffffffffffffffffffffffff163373ffffffffffffffffffffffffffffffffffffffff167f6337ed398c0e8467698c581374fdce4db14922df487b5a39483079f5f59b60a48360405161130c9190612134565b60405180910390a361131c611b0b565b5050565b600260009054906101000a900473ffffffffffffffffffffffffffffffffffffffff1681565b61134e611b96565b6000818461135c9190612b73565b905080600360008973ffffffffffffffffffffffffffffffffffffffff1673ffffffffffffffffffffffffffffffffffffffff16815260200190815260200160002060008873ffffffffffffffffffffffffffffffffffffffff1673ffffffffffffffffffffffffffffffffffffffff16815260200190815260200160002054101561141d576040517f08c379a000000000000000000000000000000000000000000000000000000000815260040161141490612703565b60405180910390fd5b600460008873ffffffffffffffffffffffffffffffffffffffff1673ffffffffffffffffffffffffffffffffffffffff1681526020019081526020016000206040518060e001604052808873ffffffffffffffffffffffffffffffffffffffff1681526020018773ffffffffffffffffffffffffffffffffffffffff168152602001868152602001428152602001858152602001848152602001600160038111156114cb576114ca611fae565b5b815250908060018154018082558091505060019003906000526020600020906007020160009091909190915060008201518160000160006101000a81548173ffffffffffffffffffffffffffffffffffffffff021916908373ffffffffffffffffffffffffffffffffffffffff16021790555060208201518160010160006101000a81548173ffffffffffffffffffffffffffffffffffffffff021916908373ffffffffffffffffffffffffffffffffffffffff16021790555060408201518160020155606082015181600301556080820151816004015560a0820151816005015560c08201518160060160006101000a81548160ff021916908360038111156115d8576115d7611fae565b5b0217905550505060006001600460008a73ffffffffffffffffffffffffffffffffffffffff1673ffffffffffffffffffffffffffffffffffffffff1681526020019081526020016000208054905061163091906128ed565b90508673ffffffffffffffffffffffffffffffffffffffff16818973ffffffffffffffffffffffffffffffffffffffff167f17f47a2475ddfe1a5de4db8c469adc9fefc1eae79d7936f7eeab8d76c642fe3f898989896040516116969493929190612bb5565b60405180910390a45050505050505050565b6002600154036116e4576040517f3ee5aeb500000000000000000000000000000000000000000000000000000000815260040160405180910390fd5b6002600181905550565b600460008373ffffffffffffffffffffffffffffffffffffffff1673ffffffffffffffffffffffffffffffffffffffff168152602001908152602001600020805490508110611772576040517f08c379a0000000000000000000000000000000000000000000000000000000008152600401611769906124c1565b60405180910390fd5b6000600460008473ffffffffffffffffffffffffffffffffffffffff1673ffffffffffffffffffffffffffffffffffffffff16815260200190815260200160002082815481106117c5576117c46124e1565b5b90600052602060002090600702019050600160038111156117e9576117e8611fae565b5b8160060160009054906101000a900460ff16600381111561180d5761180c611fae565b5b1461184d576040517f08c379a00000000000000000000000000000000000000000000000000000000081526004016118449061262b565b60405180910390fd5b6000816002015482600501546118639190612b73565b905080600360008673ffffffffffffffffffffffffffffffffffffffff1673ffffffffffffffffffffffffffffffffffffffff16815260200190815260200160002060008460000160009054906101000a900473ffffffffffffffffffffffffffffffffffffffff1673ffffffffffffffffffffffffffffffffffffffff1673ffffffffffffffffffffffffffffffffffffffff168152602001908152602001600020541015611948576040517f08c379a000000000000000000000000000000000000000000000000000000000815260040161193f90612c46565b60405180910390fd5b80600360008673ffffffffffffffffffffffffffffffffffffffff1673ffffffffffffffffffffffffffffffffffffffff16815260200190815260200160002060008460000160009054906101000a900473ffffffffffffffffffffffffffffffffffffffff1673ffffffffffffffffffffffffffffffffffffffff1673ffffffffffffffffffffffffffffffffffffffff16815260200190815260200160002060008282546119f891906128ed565b9250508190555060028260060160006101000a81548160ff02191690836003811115611a2757611a26611fae565b5b0217905550611a7b84828460000160009054906101000a900473ffffffffffffffffffffffffffffffffffffffff1673ffffffffffffffffffffffffffffffffffffffff16611ce19092919063ffffffff16565b8160000160009054906101000a900473ffffffffffffffffffffffffffffffffffffffff1673ffffffffffffffffffffffffffffffffffffffff16838573ffffffffffffffffffffffffffffffffffffffff167f27b7aa371321839701b60a4403a251676c6f3ca486e5cf8e1bd6a7b7569293d784604051611afd9190612134565b60405180910390a450505050565b60018081905550565b611b90848573ffffffffffffffffffffffffffffffffffffffff166323b872dd868686604051602401611b4993929190612c66565b604051602081830303815290604052915060e01b6020820180517bffffffffffffffffffffffffffffffffffffffffffffffffffffffff8381831617835250505050611d60565b50505050565b611b9e611e02565b73ffffffffffffffffffffffffffffffffffffffff16611bbc610669565b73ffffffffffffffffffffffffffffffffffffffff1614611c1b57611bdf611e02565b6040517f118cdaa7000000000000000000000000000000000000000000000000000000008152600401611c1291906120dd565b60405180910390fd5b565b60008060009054906101000a900473ffffffffffffffffffffffffffffffffffffffff169050816000806101000a81548173ffffffffffffffffffffffffffffffffffffffff021916908373ffffffffffffffffffffffffffffffffffffffff1602179055508173ffffffffffffffffffffffffffffffffffffffff168173ffffffffffffffffffffffffffffffffffffffff167f8be0079c531659141344cd1fd0a4f28419497f9722a3daafe3b4186f6b6457e060405160405180910390a35050565b611d5b838473ffffffffffffffffffffffffffffffffffffffff1663a9059cbb8585604051602401611d14929190612858565b604051602081830303815290604052915060e01b6020820180517bffffffffffffffffffffffffffffffffffffffffffffffffffffffff8381831617835250505050611d60565b505050565b600080602060008451602086016000885af180611d83576040513d6000823e3d81fd5b3d925060005191505060008214611d9e576001811415611dba565b60008473ffffffffffffffffffffffffffffffffffffffff163b145b15611dfc57836040517f5274afe7000000000000000000000000000000000000000000000000000000008152600401611df391906120dd565b60405180910390fd5b50505050565b600033905090565b6040518060e00160405280600073ffffffffffffffffffffffffffffffffffffffff168152602001600073ffffffffffffffffffffffffffffffffffffffff1681526020016000815260200160008152602001600081526020016000815260200160006003811115611e7f57611e7e611fae565b5b81525090565b600080fd5b600080fd5b6000819050919050565b611ea281611e8f565b8114611ead57600080fd5b50565b600081359050611ebf81611e99565b92915050565b600060208284031215611edb57611eda611e85565b5b6000611ee984828501611eb0565b91505092915050565b600073ffffffffffffffffffffffffffffffffffffffff82169050919050565b6000611f1d82611ef2565b9050919050565b611f2d81611f12565b8114611f3857600080fd5b50565b600081359050611f4a81611f24565b92915050565b60008060408385031215611f6757611f66611e85565b5b6000611f7585828601611f3b565b9250506020611f8685828601611eb0565b9150509250929050565b611f9981611f12565b82525050565b611fa881611e8f565b82525050565b7f4e487b7100000000000000000000000000000000000000000000000000000000600052602160045260246000fd5b60048110611fee57611fed611fae565b5b50565b6000819050611fff82611fdd565b919050565b600061200f82611ff1565b9050919050565b61201f81612004565b82525050565b60e08201600082015161203b6000850182611f90565b50602082015161204e6020850182611f90565b5060408201516120616040850182611f9f565b5060608201516120746060850182611f9f565b5060808201516120876080850182611f9f565b5060a082015161209a60a0850182611f9f565b5060c08201516120ad60c0850182612016565b50505050565b600060e0820190506120c86000830184612025565b92915050565b6120d781611f12565b82525050565b60006020820190506120f260008301846120ce565b92915050565b60006020828403121561210e5761210d611e85565b5b600061211c84828501611f3b565b91505092915050565b61212e81611e8f565b82525050565b60006020820190506121496000830184612125565b92915050565b600080fd5b600080fd5b600080fd5b60008083601f8401126121745761217361214f565b5b8235905067ffffffffffffffff81111561219157612190612154565b5b6020830191508360018202830111156121ad576121ac612159565b5b9250929050565b600063ffffffff82169050919050565b6121cd816121b4565b81146121d857600080fd5b50565b6000813590506121ea816121c4565b92915050565b600080600080600080600060c0888a03121561220f5761220e611e85565b5b600061221d8a828b01611f3b565b975050602061222e8a828b01611eb0565b965050604088013567ffffffffffffffff81111561224f5761224e611e8a565b5b61225b8a828b0161215e565b9550955050606061226e8a828b01611eb0565b935050608061227f8a828b01611eb0565b92505060a06122908a828b016121db565b91505092959891949750929550565b6122a881612004565b82525050565b600060e0820190506122c3600083018a6120ce565b6122d060208301896120ce565b6122dd6040830188612125565b6122ea6060830187612125565b6122f76080830186612125565b61230460a0830185612125565b61231160c083018461229f565b98975050505050505050565b6000806040838503121561233457612333611e85565b5b600061234285828601611f3b565b925050602061235385828601611f3b565b9150509250929050565b6000819050919050565b600061238261237d61237884611ef2565b61235d565b611ef2565b9050919050565b600061239482612367565b9050919050565b60006123a682612389565b9050919050565b6123b68161239b565b82525050565b60006020820190506123d160008301846123ad565b92915050565b60008060008060008060c087890312156123f4576123f3611e85565b5b600061240289828a01611f3b565b965050602061241389828a01611f3b565b955050604061242489828a01611f3b565b945050606061243589828a01611eb0565b935050608061244689828a01611eb0565b92505060a061245789828a01611eb0565b9150509295509295509295565b600082825260208201905092915050565b7f496e76616c696420737472617465677949640000000000000000000000000000600082015250565b60006124ab601283612464565b91506124b682612475565b602082019050919050565b600060208201905081810360008301526124da8161249e565b9050919050565b7f4e487b7100000000000000000000000000000000000000000000000000000000600052603260045260246000fd5b7f5a65726f20616d6f756e74000000000000000000000000000000000000000000600082015250565b6000612546600b83612464565b915061255182612510565b602082019050919050565b6000602082019050818103600083015261257581612539565b9050919050565b7f4e487b7100000000000000000000000000000000000000000000000000000000600052601160045260246000fd5b60006125b682611e8f565b91506125c183611e8f565b92508282019050808211156125d9576125d861257c565b5b92915050565b7f5374726174656779206e6f742061637469766500000000000000000000000000600082015250565b6000612615601383612464565b9150612620826125df565b602082019050919050565b6000602082019050818103600083015261264481612608565b9050919050565b7f546f6f206561726c790000000000000000000000000000000000000000000000600082015250565b6000612681600983612464565b915061268c8261264b565b602082019050919050565b600060208201905081810360008301526126b081612674565b9050919050565b7f496e73756666696369656e7420636f6e74726163742062616c616e6365000000600082015250565b60006126ed601d83612464565b91506126f8826126b7565b602082019050919050565b6000602082019050818103600083015261271c816126e0565b9050919050565b6000819050919050565b600061274861274361273e84612723565b61235d565b611e8f565b9050919050565b6127588161272d565b82525050565b600060408201905061277360008301856120ce565b612780602083018461274f565b9392505050565b60008115159050919050565b61279c81612787565b81146127a757600080fd5b50565b6000815190506127b981612793565b92915050565b6000602082840312156127d5576127d4611e85565b5b60006127e3848285016127aa565b91505092915050565b7f526573657420617070726f7665206661696c6564000000000000000000000000600082015250565b6000612822601483612464565b915061282d826127ec565b602082019050919050565b6000602082019050818103600083015261285181612815565b9050919050565b600060408201905061286d60008301856120ce565b61287a6020830184612125565b9392505050565b7f417070726f7665206661696c6564000000000000000000000000000000000000600082015250565b60006128b7600e83612464565b91506128c282612881565b602082019050919050565b600060208201905081810360008301526128e6816128aa565b9050919050565b60006128f882611e8f565b915061290383611e8f565b925082820390508181111561291b5761291a61257c565b5b92915050565b60c0820160008201516129376000850182611f90565b50602082015161294a6020850182611f9f565b50604082015161295d6040850182611f90565b5060608201516129706060850182611f9f565b5060808201516129836080850182611f9f565b5060a082015161299660a0850182611f90565b50505050565b600082825260208201905092915050565b82818337600083830152505050565b6000601f19601f8301169050919050565b60006129d9838561299c565b93506129e68385846129ad565b6129ef836129bc565b840190509392505050565b612a03816121b4565b82525050565b600061012082019050612a1f6000830188612921565b81810360c0830152612a328186886129cd565b9050612a4160e08301856120ce565b612a4f6101008301846129fa565b9695505050505050565b600081519050612a6881611e99565b92915050565b600060208284031215612a8457612a83611e85565b5b6000612a9284828501612a59565b91505092915050565b7f53776170206661696c6564000000000000000000000000000000000000000000600082015250565b6000612ad1600b83612464565b9150612adc82612a9b565b602082019050919050565b60006020820190508181036000830152612b0081612ac4565b9050919050565b7f496e73756666696369656e742062616c616e6365000000000000000000000000600082015250565b6000612b3d601483612464565b9150612b4882612b07565b602082019050919050565b60006020820190508181036000830152612b6c81612b30565b9050919050565b6000612b7e82611e8f565b9150612b8983611e8f565b9250828202612b9781611e8f565b91508282048414831517612bae57612bad61257c565b5b5092915050565b6000608082019050612bca60008301876120ce565b612bd76020830186612125565b612be46040830185612125565b612bf16060830184612125565b95945050505050565b7f496e73756666696369656e742062616c616e636520746f20726566756e640000600082015250565b6000612c30601e83612464565b9150612c3b82612bfa565b602082019050919050565b60006020820190508181036000830152612c5f81612c23565b9050919050565b6000606082019050612c7b60008301866120ce565b612c8860208301856120ce565b612c956040830184612125565b94935050505056fea264697066735822122010e5c4bc6b758ca707b8687323c063003417b0b46ea252029df86ddd41219c9964736f6c634300081c0033",
    "linkReferences": {},
    "deployedLinkReferences": {}
}